{
  "_format": "hh-sol-artifact-1",
  "contractName": "ConsensualMessaging",
  "sourceName": "contracts/ConsensualMessaging.sol",
  "abi": [
    {
      "inputs": [
        {
          "internalType": "bytes20",
          "name": "from",
          "type": "bytes20"
        },
        {
          "internalType": "bytes20",
          "name": "to",
          "type": "bytes20"
        },
        {
          "internalType": "bytes32",
          "name": "message",
          "type": "bytes32"
        },
        {
          "internalType": "bytes32",
          "name": "nonce",
          "type": "bytes32"
        }
      ],
      "stateMutability": "nonpayable",
      "type": "constructor"
    },
    {
      "anonymous": false,
      "inputs": [
        {
          "indexed": false,
          "internalType": "address",
          "name": "from",
          "type": "address"
        },
        {
          "indexed": false,
          "internalType": "address",
          "name": "to",
          "type": "address"
        },
        {
          "indexed": false,
          "internalType": "bytes32",
          "name": "message",
          "type": "bytes32"
        }
      ],
      "name": "MatchEvent",
      "type": "event"
    },
    {
      "inputs": [
        {
          "internalType": "bytes",
          "name": "ciphertext",
          "type": "bytes"
        }
      ],
      "name": "decrypt",
      "outputs": [
        {
          "components": [
            {
              "internalType": "address",
              "name": "from",
              "type": "address"
            },
            {
              "internalType": "address",
              "name": "to",
              "type": "address"
            },
            {
              "internalType": "bytes32",
              "name": "message",
              "type": "bytes32"
            }
          ],
          "internalType": "struct ConsensualMessaging.Message",
          "name": "decrypted",
          "type": "tuple"
        }
      ],
      "stateMutability": "view",
      "type": "function"
    },
    {
      "inputs": [
        {
          "components": [
            {
              "internalType": "address",
              "name": "from",
              "type": "address"
            },
            {
              "internalType": "address",
              "name": "to",
              "type": "address"
            },
            {
              "internalType": "bytes32",
              "name": "message",
              "type": "bytes32"
            }
          ],
          "internalType": "struct ConsensualMessaging.Message",
          "name": "plaintext",
          "type": "tuple"
        }
      ],
      "name": "encrypt",
      "outputs": [
        {
          "internalType": "bytes",
          "name": "ciphertext",
          "type": "bytes"
        }
      ],
      "stateMutability": "view",
      "type": "function"
    },
    {
      "inputs": [
        {
          "internalType": "uint256",
          "name": "",
          "type": "uint256"
        }
      ],
      "name": "messages",
      "outputs": [
        {
          "internalType": "bytes",
          "name": "",
          "type": "bytes"
        }
      ],
      "stateMutability": "view",
      "type": "function"
    },
    {
      "inputs": [
        {
          "internalType": "address",
          "name": "to",
          "type": "address"
        },
        {
          "internalType": "bytes32",
          "name": "message",
          "type": "bytes32"
        }
      ],
      "name": "submit",
      "outputs": [
        {
          "internalType": "bool",
          "name": "",
          "type": "bool"
        }
      ],
      "stateMutability": "nonpayable",
      "type": "function"
    }
  ],
  "bytecode": "0x60806040523480156200001157600080fd5b50604051620017a0380380620017a0833981810160405281019062000037919062000147565b836000806101000a81548173ffffffffffffffffffffffffffffffffffffffff021916908360601c021790555082600160006101000a81548173ffffffffffffffffffffffffffffffffffffffff021916908360601c0217905550816002819055508060038190555050505050620001b9565b600080fd5b60007fffffffffffffffffffffffffffffffffffffffff00000000000000000000000082169050919050565b620000e681620000af565b8114620000f257600080fd5b50565b6000815190506200010681620000db565b92915050565b6000819050919050565b62000121816200010c565b81146200012d57600080fd5b50565b600081519050620001418162000116565b92915050565b60008060008060808587031215620001645762000163620000aa565b5b60006200017487828801620000f5565b94505060206200018787828801620000f5565b93505060406200019a8782880162000130565b9250506060620001ad8782880162000130565b91505092959194509250565b6115d780620001c96000396000f3fe608060405234801561001057600080fd5b506004361061004c5760003560e01c80630d80fefd14610051578063210ca7be146100815780632399b7a3146100b1578063ae8b7159146100e1575b600080fd5b61006b600480360381019061006691906107de565b610111565b604051610078919061089b565b60405180910390f35b61009b60048036038101906100969190610922565b6101bd565b6040516100a89190610a0b565b60405180910390f35b6100cb60048036038101906100c69190610a7e565b610297565b6040516100d89190610ad9565b60405180910390f35b6100fb60048036038101906100f69190610bd8565b610646565b604051610108919061089b565b60405180910390f35b6004818154811061012157600080fd5b90600052602060002001600091509050805461013c90610c34565b80601f016020809104026020016040519081016040528092919081815260200182805461016890610c34565b80156101b55780601f1061018a576101008083540402835291602001916101b5565b820191906000526020600020905b81548152906001019060200180831161019857829003601f168201915b505050505081565b6101c56106e7565b604051806060016040528060008054906101000a900460601b85856020906034926101f293929190610c6f565b906101fd9190610cee565b1860601c73ffffffffffffffffffffffffffffffffffffffff168152602001600160009054906101000a900460601b858560349060489261024093929190610c6f565b9061024b9190610cee565b1860601c73ffffffffffffffffffffffffffffffffffffffff1681526020016002548585604890809261028093929190610c6f565b9061028b9190610d4d565b18815250905092915050565b60008033905060005b6004805490508110156105b05760003073ffffffffffffffffffffffffffffffffffffffff1663210ca7be600484815481106102df576102de610dac565b5b906000526020600020016040516020016102f99190610e7e565b6040516020818303038152906040526040518263ffffffff1660e01b8152600401610324919061089b565b606060405180830381865afa158015610341573d6000803e3d6000fd5b505050506040513d601f19601f820116820180604052508101906103659190610f23565b90508573ffffffffffffffffffffffffffffffffffffffff16816020015173ffffffffffffffffffffffffffffffffffffffff161480156103d557508273ffffffffffffffffffffffffffffffffffffffff16816000015173ffffffffffffffffffffffffffffffffffffffff16145b15610415576040517f08c379a000000000000000000000000000000000000000000000000000000000815260040161040c90610fad565b60405180910390fd5b8273ffffffffffffffffffffffffffffffffffffffff16816020015173ffffffffffffffffffffffffffffffffffffffff1614801561048357508573ffffffffffffffffffffffffffffffffffffffff16816000015173ffffffffffffffffffffffffffffffffffffffff16145b1561059c576004600160048054905061049c9190610ffc565b815481106104ad576104ac610dac565b5b90600052602060002001600483815481106104cb576104ca610dac565b5b9060005260206000200190816104e191906111e5565b5060048054806104f4576104f36112cd565b5b6001900381819060005260206000200160006105109190610737565b90557f587fe514eb7ecb64327be663ea848004f82ac8f43c5d3d7aab000aa4fb1b06b6838783604001516040516105499392919061131a565b60405180910390a17f587fe514eb7ecb64327be663ea848004f82ac8f43c5d3d7aab000aa4fb1b06b6868483604001516040516105889392919061131a565b60405180910390a160019350505050610640565b5080806105a890611351565b9150506102a0565b50600060405180606001604052808373ffffffffffffffffffffffffffffffffffffffff1681526020018673ffffffffffffffffffffffffffffffffffffffff168152602001858152509050600461060782610646565b9080600181540180825580915050600190039060005260206000200160009091909190915090816106389190611399565b506000925050505b92915050565b606060004283600001518460200151604051602001610667939291906114d4565b604051602081830303815290604052805190602001209050600354811860008054906101000a900460601b846000015160601b18600160009054906101000a900460601b856020015160601b186002548660400151186040516020016106d09493929190611553565b604051602081830303815290604052915050919050565b6040518060600160405280600073ffffffffffffffffffffffffffffffffffffffff168152602001600073ffffffffffffffffffffffffffffffffffffffff168152602001600080191681525090565b50805461074390610c34565b6000825580601f106107555750610774565b601f0160209004906000526020600020908101906107739190610777565b5b50565b5b80821115610790576000816000905550600101610778565b5090565b6000604051905090565b600080fd5b600080fd5b6000819050919050565b6107bb816107a8565b81146107c657600080fd5b50565b6000813590506107d8816107b2565b92915050565b6000602082840312156107f4576107f361079e565b5b6000610802848285016107c9565b91505092915050565b600081519050919050565b600082825260208201905092915050565b60005b8381101561084557808201518184015260208101905061082a565b60008484015250505050565b6000601f19601f8301169050919050565b600061086d8261080b565b6108778185610816565b9350610887818560208601610827565b61089081610851565b840191505092915050565b600060208201905081810360008301526108b58184610862565b905092915050565b600080fd5b600080fd5b600080fd5b60008083601f8401126108e2576108e16108bd565b5b8235905067ffffffffffffffff8111156108ff576108fe6108c2565b5b60208301915083600182028301111561091b5761091a6108c7565b5b9250929050565b600080602083850312156109395761093861079e565b5b600083013567ffffffffffffffff811115610957576109566107a3565b5b610963858286016108cc565b92509250509250929050565b600073ffffffffffffffffffffffffffffffffffffffff82169050919050565b600061099a8261096f565b9050919050565b6109aa8161098f565b82525050565b6000819050919050565b6109c3816109b0565b82525050565b6060820160008201516109df60008501826109a1565b5060208201516109f260208501826109a1565b506040820151610a0560408501826109ba565b50505050565b6000606082019050610a2060008301846109c9565b92915050565b610a2f8161098f565b8114610a3a57600080fd5b50565b600081359050610a4c81610a26565b92915050565b610a5b816109b0565b8114610a6657600080fd5b50565b600081359050610a7881610a52565b92915050565b60008060408385031215610a9557610a9461079e565b5b6000610aa385828601610a3d565b9250506020610ab485828601610a69565b9150509250929050565b60008115159050919050565b610ad381610abe565b82525050565b6000602082019050610aee6000830184610aca565b92915050565b600080fd5b7f4e487b7100000000000000000000000000000000000000000000000000000000600052604160045260246000fd5b610b3182610851565b810181811067ffffffffffffffff82111715610b5057610b4f610af9565b5b80604052505050565b6000610b63610794565b9050610b6f8282610b28565b919050565b600060608284031215610b8a57610b89610af4565b5b610b946060610b59565b90506000610ba484828501610a3d565b6000830152506020610bb884828501610a3d565b6020830152506040610bcc84828501610a69565b60408301525092915050565b600060608284031215610bee57610bed61079e565b5b6000610bfc84828501610b74565b91505092915050565b7f4e487b7100000000000000000000000000000000000000000000000000000000600052602260045260246000fd5b60006002820490506001821680610c4c57607f821691505b602082108103610c5f57610c5e610c05565b5b50919050565b600080fd5b600080fd5b60008085851115610c8357610c82610c65565b5b83861115610c9457610c93610c6a565b5b6001850283019150848603905094509492505050565b600082905092915050565b60007fffffffffffffffffffffffffffffffffffffffff00000000000000000000000082169050919050565b600082821b905092915050565b6000610cfa8383610caa565b82610d058135610cb5565b92506014821015610d4557610d407fffffffffffffffffffffffffffffffffffffffff00000000000000000000000083601403600802610ce1565b831692505b505092915050565b6000610d598383610caa565b82610d6481356109b0565b92506020821015610da457610d9f7fffffffffffffffffffffffffffffffffffffffffffffffffffffffffffffffff83602003600802610ce1565b831692505b505092915050565b7f4e487b7100000000000000000000000000000000000000000000000000000000600052603260045260246000fd5b600081905092915050565b60008190508160005260206000209050919050565b60008154610e0881610c34565b610e128186610ddb565b94506001821660008114610e2d5760018114610e4257610e75565b60ff1983168652811515820286019350610e75565b610e4b85610de6565b60005b83811015610e6d57815481890152600182019150602081019050610e4e565b838801955050505b50505092915050565b6000610e8a8284610dfb565b915081905092915050565b600081519050610ea481610a26565b92915050565b600081519050610eb981610a52565b92915050565b600060608284031215610ed557610ed4610af4565b5b610edf6060610b59565b90506000610eef84828501610e95565b6000830152506020610f0384828501610e95565b6020830152506040610f1784828501610eaa565b60408301525092915050565b600060608284031215610f3957610f3861079e565b5b6000610f4784828501610ebf565b91505092915050565b600082825260208201905092915050565b7f416c72656164792073656e7420746865206d6573736167650000000000000000600082015250565b6000610f97601883610f50565b9150610fa282610f61565b602082019050919050565b60006020820190508181036000830152610fc681610f8a565b9050919050565b7f4e487b7100000000000000000000000000000000000000000000000000000000600052601160045260246000fd5b6000611007826107a8565b9150611012836107a8565b925082820390508181111561102a57611029610fcd565b5b92915050565b60008154905061103f81610c34565b9050919050565b60008190508160005260206000209050919050565b60006020601f8301049050919050565b60006008830261109b7fffffffffffffffffffffffffffffffffffffffffffffffffffffffffffffffff82610ce1565b6110a58683610ce1565b95508019841693508086168417925050509392505050565b6000819050919050565b60006110e26110dd6110d8846107a8565b6110bd565b6107a8565b9050919050565b6000819050919050565b6110fc836110c7565b611110611108826110e9565b84845461106b565b825550505050565b600090565b611125611118565b6111308184846110f3565b505050565b5b818110156111545761114960008261111d565b600181019050611136565b5050565b601f8211156111995761116a81610de6565b6111738461105b565b81016020851015611182578190505b61119661118e8561105b565b830182611135565b50505b505050565b600082821c905092915050565b60006111bc6000198460080261119e565b1980831691505092915050565b60006111d583836111ab565b9150826002028217905092915050565b8181036111f35750506112cb565b6111fc82611030565b67ffffffffffffffff81111561121557611214610af9565b5b61121f8254610c34565b61122a828285611158565b6000601f8311600181146112595760008415611247578287015490505b61125185826111c9565b8655506112c4565b601f19841661126787611046565b965061127286610de6565b60005b8281101561129a57848901548255600182019150600185019450602081019050611275565b868310156112b757848901546112b3601f8916826111ab565b8355505b6001600288020188555050505b5050505050505b565b7f4e487b7100000000000000000000000000000000000000000000000000000000600052603160045260246000fd5b6113058161098f565b82525050565b611314816109b0565b82525050565b600060608201905061132f60008301866112fc565b61133c60208301856112fc565b611349604083018461130b565b949350505050565b600061135c826107a8565b91507fffffffffffffffffffffffffffffffffffffffffffffffffffffffffffffffff820361138e5761138d610fcd565b5b600182019050919050565b6113a28261080b565b67ffffffffffffffff8111156113bb576113ba610af9565b5b6113c58254610c34565b6113d0828285611158565b600060209050601f83116001811461140357600084156113f1578287015190505b6113fb85826111c9565b865550611463565b601f19841661141186610de6565b60005b8281101561143957848901518255600182019150602085019450602081019050611414565b868310156114565784890151611452601f8916826111ab565b8355505b6001600288020188555050505b505050505050565b6000819050919050565b611486611481826107a8565b61146b565b82525050565b60008160601b9050919050565b60006114a48261148c565b9050919050565b60006114b682611499565b9050919050565b6114ce6114c98261098f565b6114ab565b82525050565b60006114e08286611475565b6020820191506114f082856114bd565b60148201915061150082846114bd565b601482019150819050949350505050565b6000819050919050565b61152c611527826109b0565b611511565b82525050565b6000819050919050565b61154d61154882610cb5565b611532565b82525050565b600061155f828761151b565b60208201915061156f828661153c565b60148201915061157f828561153c565b60148201915061158f828461151b565b6020820191508190509594505050505056fea2646970667358221220e9dc92f88081b1f90c181d1f44715b9bcf32205db6814d4a2faaae50c78e67ea64736f6c63430008130033",
  "linkReferences": {},
  "deployedLinkReferences": {}
}